:020000040000FA
:201000000000042029520000515200005352000055520000575200005952000000000000EE
:201020000000000000000000000000005B5200005D520000000000005F52000061520000F0
:20104000957000009566000085EA0000635200006352000063520000316D000063520000AF
:2010600089BF00006352000063520000A571000063520000A5700000635200006352000074
:20108000B1910000635200006352000063520000635200006352000063520000635200001B
:2010A0006352000063520000635200006352000063520000635200000000000000000000F2
:2010C0006352000063520000635200006352000063520000635200006352000095890000FF
:2010E000635200006352000063520000000000000000000063520000000000006352000067
:201100000000000000000000000000000000000000000000000000000000000000000000CF
:201120000000000000000000000000000000000000000000000000000000000000000000AF
:2011400000000000000000000000000000000000000000000000000000000000000000008F
:2011600000000000000000000000000000000000000000000000000000000000000000006F
:2011800000000000000000000000000000000000000000000000000000000000000000004F
:2011A00000000000000000000000000000000000000000000000000000000000000000002F
:2011C00000000000000000000000000000000000000000000000000000000000000000000F
:2011E0000000000000000000000000000000000000000000000000000000000000000000EF
:2012000001F0FF01102A2BDB10F0070F08D010F8013B013A8B422DD010F0070F42B3F6D194
:20122000F0B441EA012141EA014122F007047FF000070023F0E80256083C85EA010586EA41
:20124000010685FA47F5A3FA87F586FA47F6A5FA87F68EB9EED1F0BC01F0FF0102F007023C
:2012600032B110F8013B013A83EA010313B1F8D10020704701387047002D06BF354603389F
:20128000073815F0010F07D1013015F4807F02BF013015F4C03F0130F0BC0138704700BF63
:2012A00010B5054C237833B9044B13B10448AFF300800123237010BDB802002000000000B2
:2012C000E028010008B5034B1BB103490348AFF3008008BD00000000BC020020E0280100C9
:2012E000A3F5803A704700BF174B002B08BF134B9D46FFF7F5FF00218B460F461348144AA7
:20130000121A10F0F5FC0E4B002B00D098470D4B002B00D098470020002104000D000D48A4
:20132000002802D00C48AFF300800FF003FC2000290002F017FF0FF0E9FB00BF0000080044
:20134000000000000000000000000420B802002040300020000000000000000000B585B015
:201360000346002101AA44F20100CDE90111039300F004F805B05DF804FB00BF72B6094B93
:201380001B68DB0700D500BEBFF34F8F0649074BCA6802F4E0621343CB60BFF34F8F00BFEA
:2013A000FDE700BFF0ED00E000ED00E00400FA050378052B02D0094B1B681847084BD3F82C
:2013C0008424D3F8803413F0FF0FF4D1054BD2B2052A08BF1846014B1B681847D4020020C4
:2013E000007002400C200100014B02481B681847D402002010200100012803D0022809D070
:2014000020B17047054B06481B681847034B05481B681847014B04481B681847D4020020D7
:201420000420010000200100082001002DE9F04F87B0002504460F4690469946029500E0C1
:2014400001356268012356682146002202A8B0470028F5D18DF80600049065B382468346CA
:201460000AE09DF806306668023B7668B0479DF806309B445D451ED9626801235668214681
:201480000DF1060204A8B04762680123566821460DF1070204A8B0479DF80730BB424FF0DE
:2014A0000002214604A8DCD1D04508D00AF1010A5FFA8AFAD5E7052007B0BDE8F08F109A34
:2014C0009DF80630136089F8003089F801706168023B4D6809F102022146A847002007B045
:2014E000BDE8F08FF0B5054683B03B4806F07EFD044610B1204603B0F0BD384A3849394B59
:2015000014700C604822214637481C6010F0F0FB36482146482210F0EBFB002D54D095E821
:201520000700334B83E80700002847D0002005F0ABF908B1852844D12E4D2B7A002B49D0DD
:20154000013BDBB205F10C024FF0030E6E68274FDFF894C01EFB032E05F109046378EBB133
:20156000A278611C1144013B51FA83F1224408E003F00F0307EBC30391421D6030685860D9
:201580000CD012F8013B1806F2D503F00F030CEBC30391421D6030685860F2D1033474452F
:2015A000DCD10B238DF804301248336801A99847044600289ED006F05BFD9BE70E4A1A6097
:2015C000B4E7FFF7CBFEB7E7094B0B4A5D601D721A60ABE76E68E4E7B1130000B3250020B5
:2015E0007003002074030020E002002028030020D40200203C200100C119000010B506F08C
:2016000051FE68B106F056FE044648B9064805F04FF9034628B1FFF7A1FE2346184610BDF7
:201620000823184610BD00BFFC1F010006F02ABD07F028BC4FF0804303E0D3F83824D107DD
:2016400007D5D3F838249207F7D5024B02481B6818477047D40200201420010000B5054BC2
:2016600083B082221B688DF8042001A8984703B05DF804FBD40200202DE9F043057A83B0E7
:20168000002D5ED005F1FF3E5FFA8EF300F10C024FF0030E00F10901334FDFF8D4C01EFB92
:2016A000032E0C4666780022964204EB020319D094F8028013F9089013F80830B9F1000F44
:2016C0000BDB03F00F0307EBC3031B680132002BEAD0112003B0BDE8F08303F00F030CEBD4
:2016E000C303F2E70334A645DCD100261E4FDFF880C0324602EB42020A445378EBB1002450
:2017000023460CE003F00F0307EBC303186045682D685D6055780134E3B29D420CD99578D8
:20172000134413F905E05B5DBEF1000FEADA03F00F030CEBC303E9E7057A0136F2B2954264
:20174000D8D80A4A13681BB11A681368002BFBD1106043680B228DF804201B6801A998474D
:2017600003B0BDE8F08300BF2803002070030020E0020020024B1878003818BF012070473B
:20178000B2250020030710B5044604D52046BDE8104007F00FBA06F027FF204607F062FA70
:2017A0002046BDE8104007F005BA00BF07F048BC014B1868704700BF70030020F0B40E4B8C
:2017C0001F688FB13E7A96B100231C463A4602E0DCB2A6420BD9557A854203F1010302F181
:2017E0000302F5D101B10C703846F0BC70473B681F68002FE6D1F7E770030020436811468C
:201800001B68184700F00F03082B0AD802064CBF054A064A02EBC303186810B143681B68FB
:2018200018471020704700BFE00200202803002038B5094B1C6864B1054602E023681C6840
:201840003CB1636829461B68204698470628F5D038BD062038BD00BF7003002038B50D4604
:20186000044606F093FD18B1054B1B78022B01D0082038BD29462046BDE8384006F096BD96
:20188000B325002038B50D46044606F07FFD18B1054B1B78022B01D0082038BD29462046B8
:2018A000BDE8384006F014BEB3250020F8B543689B6805460C4616461BB19847062800D04E
:2018C000F8BDEEB92B7AA3421CD9093504EB44042C44677897B133463A469A420BD9A3784D
:2018E000A2190136D05CFFF74DFFF3B2BB4205D262789A42F3D800231B78FFDE0020F8BD26
:201900000720F8BD7378FFDE70B54368DB6805460C4603B198472B7AA3421AD9093504EB36
:2019200044042C4466789EB100252B46324693420BD2A37862190135D05C07F081FBEBB2FA
:201940009E4205D962789342F3D300231B78FFDE70BD00235B78FFDE43681B6903B118477F
:201960001846704770B50A4B1D687DB12E7A4EB100242146013400222846FFF797FFE1B20F
:20198000B142F7D32B681D68002DEFD170BD00BF7003002070B5094B1D6875B12E7A46B143
:2019A0000024214601342846FFF7AEFFE1B2B142F8D32B681D68002DF0D170BD700300203F
:2019C00070B503780446852B00F2BF80DFE813F00002B201BE003A026602E300EA00BD00D1
:2019E000040117012A01BD00BD00BD00BD003D01BD00BD00BD00BD00BD00BD00BD00BD0085
:201A0000BD00BD00BD00BD00BD00BD00BD00BD00BD00BD00BD00BD00BD00BD00BD00BD00F6
:201A2000BD00BD00BD00BD00BD00BD00BD00BD00BD00BD00BD00BD00BD00BD00BD00BD00D6
:201A4000BD00BD00BD00BD00BD00BD00BD00BD00BD00BD00BD00BD00BD00BD00BD00BD00B6
:201A6000BD00BD00BD00BD00BD00BD00BD00BD00BD00BD00BD00BD00BD00BD00BD00BD0096
:201A8000BD00BD00BD00BD00BD00BD00BD00BD00BD00BD00BD00BD00BD00BD00BD00BD0076
:201AA000BD00BD00BD00BD00BD00BD00BD00BD00BD00BD00BD00BD00BD00BD00BD00BD0056
:201AC000BD00BD00BD00BD00BD00BD00BD00BD005101860060011C02E301E3008C4B8D4953
:201AE000D3E9000290478C4B1C684CB1894D636820461B682946984723681C68002CF6D11F
:201B0000864C63680BB10D209847FFF743FF01F075FB834B1B68002B00F0FD810120814DEE
:201B200006F08EFB2A78931EDBB2062B00F215827D49CB5C13B104F08DFE2A78022A40F05E
:201B40000C8206F0F9FB01232B7070BD754D2A78931EDBB2062B00F2CD817349CB5C13B167
:201B600004F078FE2A78022A40F0C48106F0E4FB6A4B5B6803222A700BB102209847664B3E
:201B80001D6845B16B6828461B68214698472B681D68002DF6D15E4B2146D3E90002BDE841
:201BA0007040104790F902308278002BB4BF5F4B574B02F00F0203EBC203D3E900022146A4
:201BC00090470028C1D0A0780207BED00307BCD4BDE8704006F0DABC504B5B680BB1082009
:201BE00098474D4B1D68002DAFD06B6828461B68214698472B681D68002DF6D1A5E7474B09
:201C00005B680BB109209847434B1D68002D9CD06B6828461B68214698472B681D68002D42
:201C2000F6D192E73D4B5B680BB10A2098473A4B1D68002D89D06B6828461B6821469847BA
:201C40002B681D68002DF6D17FE7344B5B680BB10F209847304B1D68002D3FF476AF6B68AE
:201C600028461B68214698472B681D68002DF6D16BE72C4C2378062B00F04F8103F0FD03D8
:201C8000052B7FF462AF06F061FB0223237070BD244DFFF77FFE07F0E9F82A78931EDBB2BD
:201CA000062B31D82049CB5C13B104F0D3FD2A78022A29D106F040FB174B1C6800232B7035
:201CC0004CB11B4E636820461B683146984723681C68002CF6D10E4B1549D3E90002904746
:201CE0000E4B5B680BB10E2098472B78023BDBB2062B3FF62AAF0C4AD35C002B3FF425AF9C
:201D0000BDE8704004F0A6BD082AD5D1D2E700BF280300201820010070030020D4020020BA
:201D200074030020B3250020F41F0100E00200201C2001009C4DFFF72DFE01F055FA2A78D5
:201D4000931EDBB2062B00F2D9809849CB5C002B00F0D480022A03D0082A01D006F0F6FA6A
:201D6000934B5B6802222A700BB101209847914B2146D3E9000290478F4B1D68002D3FF4B1
:201D8000E4AE6B6828461B68214698472B681D68002DF6D170BD844D2B78032B00F0C68096
:201DA00006F092FA00283FF4D0AE2A78931EDBB2062B40F2EB80814804F01EFD2A78022A74
:201DC00001D0082A01D106F0B7FA06232B7070BD754B1B78032B00F0A580082B00F0A280BB
:201DE000734B5B680BB100209847754B1D68002D3FF4ABAE6B6828461B68214698472B680C
:201E00005D68002DF6D170BD674D2B78032B7FF49CAE07F067F800283FF497AE2A78931E51
:201E2000DBB2062B00F2BB806049CB5C13B104F011FD2A78022A40F0B28006F07DFA04235D
:201E40002B7070BD584D2A78082A5CD0931EDBB2062B00F286805549CB5C002B00F08180CD
:201E6000022A00F0878005232B70514B5B680BB1032098474F4B2146D3E9000290474E4B30
:201E80001D68002D3FF461AE6B6828461B68214698472B681D68002DF6D170BD444B5B68B9
:201EA0000BB103209847434B4649D3E900029047414B1C684CB1434D636820461B682946F2
:201EC000984723681C68002CF6D1374D2B78062B1ED0082B0BD09A1ED2B2062A4DD83349C0
:201EE0008A5C002A49D0022B01D006F02FFA02232B7070BD082A7FF43BAE37E62F4804F099
:201F00007BFC2A7826E702232B7006F029FAACE707232B7070BD207A01E606F017FA08238A
:201F2000237070BD2848FFF74BFD59E706F0DAFF00283FF435AF2A78931EDBB2062B2BD8D1
:201F40001A49CB5C13B104F085FC2A78022A23D106F0F2F904232B7022E7082A7FF4F3AD0B
:201F6000EFE5164804F048FC2B78022B02D0082B7FF479AF06F0E0F975E7104804F03CFCD8
:201F80002B78022BB3D0082BB1D0AEE70749CB5C002B7FF414AF0EE7082ADBD1D8E7082A09
:201FA0007FF44DAF49E700BFB3250020F41F0100D4020020280300207003002008000020BB
:201FC0007403002024200100202001004360CA699A4205D38A6902600B67CB610020704790
:201FE00001F1280202608B6700207047F0B504680E7A002C00F07284A4F212347C2C00F279
:20200000C1827C2C00F2BE82DFE814F074020003DE02CF02C7022A0307032303BC02BC020C
:20202000BC02BC02BC02BC026702D702BC02BC02BC02BC02CC010F03E602BC02BC02BC026D
:20204000F401EE038C03BC02BC02BC02BC02FF00CB034803BC02BC02BC02BC02BC02BC0287
:202060006402BC02BC02BC02BC0219019B039303AC035703BC02BC02C3038403B4033903EF
:202080005F03BC02BC024103DB015003ED00BC02BC023203DB00F503BD00BC03BC02BC0286
:2020A000BC02BC02BC02BC02BC02BC02BC02BC02BC02BC02BC02BC02BC02BC02BC02BC0240
:2020C000BC02C900D303BC02BC02BC026703BC02BC02BC02BC02AC00BC02BC02BC02BC0263
:2020E000AC00BC02BC02BC02BC02BC02BC027D00C002BC02BC02BC02BC02B800BC02BC0255
:20210000BC02BC02B80001240025002A00F0CD8307795755A3424FF00005057140F27C83DB
:20212000171901343D70B04D0F7D2D682D78AF4200F0B0838F7DAF4209D10025A34205715F
:2021400040F24D85254601340AB107795755DFF8A0C2A64F9CF800503F780135EDB28CF8D2
:2021600000507BE1012500240AB1077917554024AB42047140F289836C1CC6E7012400253F
:20218000002AE2D1E3E701240025002A40F031848D7D0571A34240F262830134FFE0012589
:2021A0000024002A00F03D8307791755AB424FF00504047140F27E83274602EB050C6C1C65
:2021C000FDE201250024002A40F011840624AB42047140F23F8301350C7D0471AB4240F214
:2021E00091836C1CD4E701250024002A40F003840524AB42047140F228836C1C2425A3423F
:20220000057140F27583651CE0E701240025002A00F0FA83077957554FF0000CA34280F821
:2022200004C040F29084651C0027AB4202F804C0077140F2F383541901352770F3E00125EE
:202240000024002A00F0EF8307791755AB424FF02404047140F2C183274605F1010C00240F
:2022600063455755047140F2A98325460CF101071024BB4202F80C50047140F2908325461B
:2022800007F1010C01246345D555047140F2788325460CEB04070524BB4202F80C50047142
:2022A00040F25D83254607F1010C24246345D555047140F24A8325460CF101070124BB427C
:2022C00002F80C50047140F23683254607EB040C03246345D555047140F228830CF101078B
:2022E00002F80C40BB4291F816C080F804C040F218837C1C0425A34202F807C0057140F224
:202300000B8302EB040C2F4601342425A3428CF80070057140F2FB822F46651C1755AB42F2
:202320004FF00204047140F29F82274602EB050C6C1C0225A3428CF80070057140F2DD8296
:202340002F46651C1755AB424FF00504047140F27C82274602EB050C6C1C2425A3428CF89C
:202360000070057140F2C4822F46651C1755AB424FF00604047140F26D82571901353C707F
:202380000F7D0771AB4240F2BD826C1C5755A3428D7D057140F26382171901343D70124DBA
:2023A0002D6851E001270024002A00F04082057915559F424FF00004047180F0F5827D1C2E
:2023C00039E101250024002A40F017830224AB42047140F249826C1C0225A342057140F2E4
:2023E0008C82651C04E700BF78030020B4250020B625002001240025002A00F09883077916
:2024000057559C424FF00205057180F05883671C1555BB424C7E047140F2E48202EB070C6A
:202420007D1C8CF800400024AB42047140F221826C1C0AB107795755C64D91F814C02D6870
:202440002F78BC4500F01A82DFF810E3DFF810C36F788EF8007000258CF80050BD423FD3ED
:20246000BD4F3D780135EDB23D70AE4240F2CA810925A342057140F25583651C002A00F07E
:20248000128307791755AB424FF00404047140F2B682274602EB050C6C1C8CF800700F7A38
:2024A000AD4D2D78AF4240F2AC8305EB450501F10907DFF8A0C217F805E080F804E03D44E5
:2024C0009C42CCF8005080F07E82671C002A7FF46EAFACE101240025ABE701250024CDE7F6
:2024E0000725A342057140F29281651C002A7FF45BAE96E1002A00F0EB8204791470012BBE
:202500004FF00B04047140F2238302250127D455AB420F7D077140F25B8205F1010C02247F
:2025200063455755047140F2448225460CF101070224BB4202F80C50047140F22B82254632
:2025400007F1010C02246345D555047140F213820CF1010702F80C40BB4291F819C080F820
:2025600004C040F2F7817C1C0025A34202F807C0057140F2E581171901343D70764F002580
:202580003D7072E7002303601846F0BD002A00F0F282057917460124C4E5002A00F0F282DF
:2025A00005794FF0010C0027CCE7002A00F0EC82057901274FF0000CBAE7002A00F0FF82C2
:2025C00007799446012468E7002A00F0D78207794FF0010C0025A2E75E4C002A00F0E68214
:2025E00007792468944601258CF8007024780F7DA74200F0B9818F7DA7427FF414AF0A2447
:202600009D42047180F0F5826C1C00E6002A00F0D28204790125002779E7002A00F0B0822D
:2026200090F804C0012400279EE7002A00F0C182047901250027DFF81CC1D455DCF8004065
:20264000AB426778077140F2A08102EB050C0135CAE7002A00F0B1820579174601248CE73E
:20266000002A00F08482047901274FF0000C71E7002A00F0A7820779944601246DE6002AB3
:2026800000F08E82047901274FF0000C28E6002A00F0A18207799446012436E6002A00F04A
:2026A00000821446077927700125BCE6002A00F08E820779944601243BE6002A00F0728287
:2026C000057901274FF0000CE5E5002A00F0608290F804C0012400270CE61E4C012527689A
:2026E00000241AB190F804C002F804C03C780F7DA74200F0E9808F7DA7427FF438AD0224EC
:20270000AB42047140F270822C460135002A7FF42CAD2CE5002A00F04782057901274FF03C
:20272000000CCBE5002A00F0BC8104799446012577E6002A00F01682057901274FF0000C09
:2027400096E5002A00F0458207794FF0010C002585E500BF78030020B5250020B425002075
:20276000B6250020002A00F0308205794FF0010C002787E5002A00F00F8205794FF0010CC0
:202780000027A5E5002A00F0F48105791746012404E6002A00F0218205794FF0010C002761
:2027A00083E5002A00F0F68190F804C0012500243AE5002A00F0EA810779944601248CF8E3
:2027C0000070C14FC14D3F682D7897F801C0AC4540F2148297F802C03D44A34215F80C50F6
:2027E00005716CD9651C7CE7002A00F0D7810579012700240CE6002A00F0B68104791746E1
:202800000125BCE540F2993303600120F0BD40F26D3303600120F0BD4FF461730360012024
:20282000F0BD0524AB42047144D96C1CC9E79F42027180F0B9807D1CA34C2468AB4267782E
:20284000077140F2A2800135D0E640F2553303600120F0BD40F2573303600120F0BD40F2B6
:20286000593303600120F0BD40F2513303600120F0BD4FF44F7303600120F0BD0525A3426F
:20288000057140F21781651CDBE440F2833303600120F0BD0D6AA3422D7805713FF652ACF5
:2028A00040F2893303600120F0BDA3420271B3D9013438E440F26E3303600120F0BD40F28E
:2028C000723303600120F0BD0324AB4204713FF61BAF40F2773303600120F0BD08240471EC
:2028E000002B7FF407AE40F2123303600120F0BD40F2563303600120F0BD40F252330360D7
:202900000120F0BD4FF4567303600120F0BD4FF4547303600120F0BD40F24F330360012039
:20292000F0BD4FF4537303600120F0BD40F24B3303600120F0BD40F24A3303600120F0BDEF
:2029400040F2193303600120F0BD40F2493303600120F0BD4FF4467303600120F0BD4FF479
:20296000527303600120F0BD02249D42047180F0F4806C1C40E540F2173303600120F0BDA9
:2029800040F2453303600120F0BD4FF44A7303600120F0BD40F2163303600120F0BD4FF43C
:2029A000517303600120F0BD40F2273303600120F0BD40F2153303600120F0BD40F2433312
:2029C00003600120F0BD40F2263303600120F0BD4FF4457303600120F0BD40F242330360D4
:2029E0000120F0BD40F22E3303600120F0BD0779BCE40779CAE40779A4E407798EE440F2CB
:202A0000213303600120F0BDA342027140F29B80013400259C420571C0F0938040F2353381
:202A200003600120F0BD2424AB420471D5D96C1C00259C420571C1D2013410259C420571BB
:202A4000ADD2013401259C42057199D22C4405259C42057183D2013424259C420571BFF415
:202A600074AF013401259C420571BFF464AF2C4403259C420571BFF459AF01348D7D057162
:202A80009C42BFF44EAF01340425A34205717FF643AF01342425A34205717FF638AF651CD2
:202AA00094E40125BFE40424AB420471A7D90F7A6C1CF5E440F2413303600120F0BD40F2D8
:202AC0002D3303600120F0BD78030020B62500200B24012B04713BD902240D7D05719C42E7
:202AE000BFF476AF01340225A34205717FF661AF013402259C420571BFF44CAF0134022508
:202B0000A34205717FF637AF01344D7E05719C42BFF420AF013400259C420571BFF410AF09
:202B200001342BE54FF4487303600120F0BD02259C420571C3D201344D7E05719C42BFF40A
:202B400051AF651C6FE44FF44D7303600120F0BD40F2133303600120F0BD4FF44B73036060
:202B60000120F0BD012468E70125FFF735BB0124CBE7012413E40124FFF7D5BA0124B2E7AC
:202B80000124C8E70124BAE70124B2E7012418E6012479E701243CE7012469E70124CBE7A1
:202BA00001246BE7012452E701245BE7246801251CE5012540E601248FE70124DEE43746DB
:202BC00001246DE40124FFF719BB01243AE7012402E401242CE701245CE701243CE740F225
:202BE0008E3303600120F0BD4FF45F7303600120F0BD40F2333303600120F0BD00231B781E
:202C0000FFDE024A002313601B78FFDE7803002070B90B681A7B202A01D0062070471A4661
:202C200052F80E1F9961918892799A7799837047032070474360CA699A4210D38A6910B4F5
:202C40000260C8690C6FC01A1C441A44C86100380C6718BF01205DF8044B8A61704701F1CA
:202C60002802026000208B67704700BF2DE9F0470B7888B00D4606460E2B14D8DFE803F0BA
:202C800008180808130D281313181308080808000024204608B0BDE8F0874B78DA0930D146
:202CA0005B09012B4CD00624204608B0BDE8F0870368002403F134022046C3E91E44C3E92B
:202CC00020445A671C845C62DC6208B0BDE8F087027A8B78002A00F06581817A0930002983
:202CE00000F05E81F17A415C9942D1D01B061ED4EF7807F0FD03012BCAD0002F65D00324BF
:202D0000C7E713F0600FC3F3411200F09180012AC9D18B78212BC6D1B1F80720072AC2D14A
:202D20000168681C183100F073FA0446B1E7EC78002C00F09D80032C14BF03240024A8E7A5
:202D40008B780768202B00F09B80222BABD1B1F80730002BA7D1B1F8035097F820303D84C3
:202D600005F0010203F001039342154690D0C3691BB1C2F10301C9B29847002D88D1337A98
:202D8000012B40F20B81737B06F10C04002B00F00381B37BE05C06F0CFF8337A012B40F283
:202DA000FD80737B012B40F2F780B37B23442C46587806F0C1F807F13403C7E91E55C7E94B
:202DC00020557D62FD627B6763E73568012A05F10C0140F2DF80727B012A06F10C0340F268
:202DE000D7800691B27B704905911344AC6A93F80180002C60D1EA6FEB6AAC67C5E91F42C3
:202E0000002B00F0B480296B1846002205F1240383E803004046EA6205A9FEF733FD0446D5
:202E2000F369002B3FF435AF30460021984730E703F01F03012B7FF436AF8C78062C7FF425
:202E400032AF05A8039200F0D5FC03AA00920746EA78297930463B46FEF7E8FA05283FF4D0
:202E600018AF039A3946681C00F0D2F9044610E7F369002B3FF40CAF30460121984708E714
:202E8000B1F80720072A7FF40EAF3B73B1F80730DBB27B7300200E37CDE90573079000F0DE
:202EA0008BFF002005A9FEF7D9FC0446002867D0002000F089FFECE6D5F88490686A4C4599
:202EC00028BF4C4605F1340A224651460EF0E8FEE86FEA6AEF67A9EB04030AEB0401044484
:202EE000C5E91D13C5F88040002A43D005F12C0797E8030005F12404002284E80300EA6294
:202F0000002B3BD091461BE0696F686A0EF0C8FED5E91D32A96AC5F880100B44521AC5E965
:202F20001D32F36913B1002130469847EB6A13B397E8030084E80300AB6FC5F82C90EBB171
:202F4000AA6A9342E0D2696F686A1A460EF0A8FED5E90932A96FE967521A0B44C5E9093223
:202F600053B1404605A9FEF78DFC044658E700236B6255E700236B62002451E76B6AEFE7EF
:202F80000A4B049603A9039300F020FC04468FE73B78FFDE7B78FFDE2B78FFDE6B78FFDE94
:202FA0000B78FFDE5378FFDE352C0000112C000010B503681C8CE40784B015D50B46017ABE
:202FC000012916D9417B00F10C0481B1817B605C91060CBF0124002401A9CDE9013203945C
:202FE000FEF73CFC04B010BD082004B010BD0B78FFDE00235B78FFDE0368D3F880007047DA
:20300000F0B50468238CDB0783B022D50546002016460F4600F0D0FEA26F42B9636AE3B19D
:203020001124002000F0D0FE204603B0F0BD964228BF1646616F324638460EF031FED4E9EC
:203040001D239B1B3244C4E91D23C4F880600024E7E70824204603B0F0BDC4E909762A7AC7
:20306000012A12D9697B012905F10C020FD9AB7B0849009113440C34587801946946FEF798
:2030800001FC041E08BF9224CBE75B78FFDE1B78FFDE00BFCD1F0000002070472DE9F04FEB
:2030A0004B6885B0CDE900020C46002B71D005F069FAE568019B9D4228BF1D468146002D54
:2030C0007CD04FF0000A5646D3464FF00108D4E90113AB421F4628BF2F46E9B13A4609EBD1
:2030E00006000EF0DDFDD4E90223D21BDB1BC4E90223C4F804B0ED1B3E442AB3002B08BF92
:203100004FF00008002DE2D1009BC3F800905E60404605B0BDE8F08FABB120463B4650F8FA
:20312000101B4A68D2F804A009EB0602D047D4E90223D21BDB1BC4E90223ED1B3E445AB105
:203140004FF0010ADAE7E368BAF1000F04D15BB99846002DBBD1D7E7226812681268226021
:203160004FF0010A002BF3D02168F1B1CDF808B003E0A36821680133A3604B6800225F6825
:2031800002A80123B8470028F3D12061002D9ED1BAE70B681B681B68002B88D18B68002B9D
:2031A00085D1036043609846B2E76160002EABD0019BB34288BF4FF00008A5E72E464FF074
:2031C0000108A1E7054B0528187004D0044A137823F0020313700348FEF7F2BBB725002028
:2031E000B82500204C20010008B50020FEF7CAFABDE808408020FEF7C5BA00BF08B5002032
:20320000FEF7D4FABDE808408020FEF7CFBA00BF70B5C38893421E4628BF1646934284B02C
:203220000D4612D8002400200394CDE9015600F0C3FD01A98020FEF711FB044688B10020CB
:2032400000F0C2FD204604B070BD8020144605F08DF8B4FBF0F202FB1044B4FA84F464098F
:20326000E1E705F069FA80280BD1094A094B92E8030083E80300002000F0A6FD204604B04B
:2032800070BD002000F0A0FD1024204604B070BD84200100A00300202DE9F04F0B780E2B60
:2032A00089B018D8F3B1013B0D2B1BD8DFE803F01F0E281A354C1A1A1A1A0E666F07B24BE1
:2032C0001B78012B02D00120FFF77CFF0024204609B0BDE8F08F852B04D1AB4B1B78032B28
:2032E00000F040810624204609B0BDE8F08FA64B1B78032BF6D00320FFF764FF0624E6E7C5
:20330000A24803F0FDF90028E0D0A14B01221A60BFF36F8FBFF34F8FD8E705230DF115003F
:203320008DF8143005F070F99DF81530994E002203F01F043260032C00F2B980DFE814F0B6
:20334000E800B90099008D00C87803280D46C9D0904E3368002B00F00381002271683260AA
:203360009847044600287ED13368002B00F00581AB78002BAAD105F069F9A8E7824B1B7862
:20338000002BA3D00020FFF71DFF00249FE74FF08043D3F8383413F0010F7B4B1B7806D038
:2033A000022B93D00220FFF70DFF00248FE7012B89D18BE7BDF81B30002B00F0D880092B20
:2033C00028BF09239946FEF7F3F90546002800F0DB81BB464FF0090ACDF80CB04FF0000840
:2033E00001E008F101086A68012357682946002203A8B8470028F4D12A682B7A15681C44F9
:20340000C244E4B2002DE7D1634D644928464A460EF046FC2C71A5F802A0FEF7ABF918B152
:20342000EB7943F02003EB71FEF7C2F95C4BBDF81B2018600020C3E90159DA6000F0BCFCAF
:2034400058498020FEF71EFA0446002800F09F81002000F0B9FC062C05D105A8FEF7E8F94C
:203460000446002C73D005F05DF9204609B0BDE8F08F9DF81900020707D005A9FEF7C2F919
:2034800006280446EDD19DF8153013F0600F0ED19DF816303C4A9DF819401278012B00F0D6
:2034A000B980032B00F0A680002B00F0C6800624D9E79DF8190003A9FEF780F90546002809
:2034C00059D09DF80C1005AAFEF798F906280446C7D19DF8152012F0600FC4D12A4B9DF8F3
:2034E0000C101B78D20940F014819DF816200B2AB9D1052B40F0B280BDF81730FF2B00F249
:20350000FC809DF817202846FEF7D0F90446A8E713F0600FC3F341179FD1DB0948D19DF8DC
:203520001630032B00F09C80092B00F0A880012B93D1BDF81730012B8FD1FEF71BF9002876
:2035400000F0D980184A137823F00203137033686BB105F0F1F8044600287FF4B7AE0AE7CA
:203560000E2480E70420FFF72DFE0624AFE605F0CFF80024ABE6102475E70C4B1B68082BA0
:2035800033D005F0C5F8A2E6B7250020A80300205C700240A0030020AC0300205020010016
:2035A000880300208C200100B8250020300100109DF81620062A00F08780082A73D0002AE4
:2035C0007FF44BAF7B497C4B09781A80890744BF02221A7078490DF115000222FFF718FE93
:2035E0000446062C7FF43DAF37E7744B1B68002BC7D16BE625073FF55AAFBDF81730002BEC
:203600007FF455AF052A01D0200727D1204604F0BDFF9CE721073FF54AAFBDF81730002BFF
:203620007FF445AF052A01D0230717D1204604F0DBFF204605F016FB89E7052A01D02707D3
:203640000CD1204604F0AEFF5B49034602220DF115000B80FFF7DCFD044602E7082402E7C0
:20366000BDF81730012B7FF4F8AEFEF783F8002841D0504A137843F00203137067E7504C96
:203680002378043B012BE9D89DF81730BBB3012B33D1FEF767F92378052B3FF458AF05206A
:2036A000FFF790FD53E7464A1278052A47D0042A7FF4D3AE404B1F703F490DF115000122F3
:2036C000FFF7A6FD04468CE79DF81830022B3FF471AE032B36D0012B7FF4BFAEBDF81B30F8
:2036E000002B3FF444AF37490DF115001222FFF78FFD044675E70F24B5E60724B3E6FEF703
:2037000049F92378042B3FF422AF0420FFF75AFD1DE79DF816705FB30A2F7FF4A4AE052BC9
:203720009CD128460192FEF717F92349019A03460B700DF11500FFF76BFD044691E61E4AB1
:203740001370B9E7BDF81B30002B3FF410AFBDF819109DF8170000F01DFB014600283FF4F5
:203760007CAE0A780DF11500FFF752FD044638E7052B7FF473AF10490DF1150002220F80F8
:20378000FFF746FD04466CE64FF0090A3CE604F0D3FF802808D10C4B93E8030086E8030053
:2037A000204600F011FBD2E6204600F00DFB102459E600BFB8250020AC030020340100104E
:2037C000B7250020702001008420010038B505460C4604F0B1FFA84207D194E80300044AFA
:2037E00082E803000023184638BD1023184638BDA003002008B1402303600148704700BF5F
:20380000AC030020F0B40D7A0DB101F109050468002C59D06FF4AB763444142C00F24A8136
:20382000142C00F24781DFE814F05400E700EE00F500FC00030109011001170145014501E6
:203840001E0125012C0145013B0033012700390115003F0101250024002A40F0DB818A8A77
:20386000AB424FEA1222027140F2338140F26D1303600120F0BC704701250024002A40F058
:20388000CD814A8AAB424FEA1222027140F226816C1C8A8A0271A34240F27B81651CDEE7F8
:2038A00001250024002A40F0B7810A8AAB424FEA1222027140F217816C1C4A8A0271A3424D
:2038C00040F26C81651CDCE709240471002B00F0F680002A00F0A48104791470012B4FF0A7
:2038E0000404047140F2F0800227012694559F422D78057180F089817E1C0024B342D5551D
:20390000047140F27D812546771C0024BB429555047140F2708125467E1CFF24B342D5551A
:20392000047140F263812546771C0124BB429555047140F2568125463E190124B342D5556E
:20394000047140F249812546371900249F429555047180F03C8125467E1C09249E42D5556E
:20396000047180F02F812546771C21249F429555047180F0228126467C1C09259C42D655E1
:20398000057180F015811619013435700E7C0671A34240F20881651C16550E8A9D424FEA65
:2039A0001626067180F09F8057196C1C3E708E7C06719C4280F0F280651C16554E8A9D423B
:2039C0004FEA1626067180F0898057196C1C3E700E7D0671A34240F2DC80651C1655898A68
:2039E0009D424FEA1121017173D22A44117040F26D13036001203DE7002A00F0B3800479B3
:203A00000127002672E7002A00F0A58005790126002772E7002A00F097800579012700269E
:203A200073E7002A00F0898005790126002774E7002A5DD005790127002676E7002A00F048
:203A40009E8005790126002777E7002A00F0958005790127002678E7002A00F08C80057920
:203A60000126002779E7002A00F083800579012700267AE7002A00F08A800679012400275F
:203A80007BE7002A00F081800579164601247CE7002A78D006791746012487E7002A70D0FC
:203AA00006791746012492E7002A3FF4DFAE017911709CE7002303601846F0BC704740F2AB
:203AC000571303600120F8E74FF4AC7303600120F3E740F26B1303600120EEE740F26913A2
:203AE00003600120E9E740F2671303600120E4E701240122A342027173D914440122A3422B
:203B0000027169D9144400229C4202715FD2013409229C42027155D2013421229C42027153
:203B20004BD2013409229C42027141D201340A8A0271A34237D9651CB7E60124FF229C4231
:203B4000027153D20134D4E701240022A342027151D90134F2E701240022A34202714FD93F
:203B60000134F2E701242A780271A3424DD90134F2E70124D1E70124CAE70124C3E701243D
:203B8000BCE7012485E6012497E60124CFE70124C8E74FF4B573036001208EE74FF4B473D3
:203BA0000360012089E74FF4B3730360012084E74FF4B273036001207FE740F2631303605C
:203BC00001207AE74FF4B1730360012075E740F25F130360012070E74FF4AF7303600120B4
:203BE0006BE740F25D130360012066E74FF4AE730360012061E740F25B13036001205CE769
:203C00004FF4AD730360012057E740F259130360012052E70679E1E60679BDE60679CCE68B
:203C20000422012B02717FF64FAF02249BE700BF0B780E2B0BD8DFE803F0080808080A0C56
:203C4000080A0A0A0A08080808000020704706207047F0B54B78DA0985B00C46064611D160
:203C60005B09012B02D0062005B0F0BD8C78002CF9D102681373036A002B3AD02146984788
:203C80002046F1E713F0600FC3F3411215D0012AE9D18B78072B07D0082BE4D1F268481CEF
:203CA000B169FFF7B5FADFE7B1F80720182ADAD1C169601CFFF7ACFAD6E703F01F03012B82
:203CC000D1D18D78062DCED103A80292FFF792FD02AA00920746E278217930463B46FDF73D
:203CE000A5FB0528BFD0029A3946601CFFF790FABAE71846B8E700BF70B54FF0805286B088
:203D0000D2F8A830D2F8A42000926FEA83436FEA93430B4A0B4E9BB202A80D2109F00EFEBB
:203D200002AD002404E015F8013B06F8013B013402A80DF0E5FF8442F5D306B070BD00BF59
:203D4000A8200100D825002038B5114B53F8204023780BB9A01C38BD0020FFF74BFD217882
:203D600091B12246C4F101055319DCB2234620F8141012F8011F0029F6D101335B00DBB209
:203D800043F44073038038BD40F20233FAE700BF1021010040B1052808D8054A105C28B1F6
:203DA000044B53F820300BB1FFF7CEBF00207047282101001021010072B6024A1368013364
:203DC00013607047EC030020034A1368013B136003B962B6704700BFEC03002010B50446CB
:203DE000006830B1002105F0A3FC54F8040F0028F8D110BD2DE9F043038883B0044643B163
:203E0000B3F5867F0CD1822910D0012003B0BDE8F0834FF486730120238003B0BDE8F083D6
:203E200000230380032003B0BDE8F08301F0ACFABFF35F8F19491A4B0E6800220A601F7857
:203E40001A70FFB2BFF35F8F164D01F0A1FA28680028DED0DFF85090DFF8508003E055F8A4
:203E6000040F0028D5D090F84A3026FA03F3DA07F5D590F8493047FA03F3DB07EFD500F0D1
:203E800095FD0028EBD02B68D9F80020009218464246022100F028FDE1E700BF00040020CE
:203EA000B925002060000020182700204D3F000010B50C4A90F84B30126882B00133009209
:203EC000044680F84B30084A03468021203000F00BFD064B19782246002002B0BDE8104010
:203EE00005F0AEBC18270020B13E00002D30002010B4094A094C1368194311602178034602
:203F0000012202FA03F30B43DBB2237004485DF8044B05F0C3BC00BF00040020B9250020D9
:203F20006800002010B5044690F84A1090F8490001F0ECF910B994F8480010BD01280ABF05
:203F400094F84800002080F0010010BD70B582B0044600F02BFD08B902B070BD04F12006BB
:203F6000304600F023FD05462046FFF7DBFF01280FD00028F0D1002DEED1304600F0FCFCFF
:203F80000D4B22462846197802B0BDE8704005F057BC002DE0D0094B094A1B680093002594
:203FA0003046234684F84B507E2100F09DFC054B28462246E7E700BF2C3000201827002055
:203FC000B13E00002E300020F8B505F0A7FB304B304C187005F0A2FB2F4B304F187005F0A9
:203FE0009DFB2F4922682F4B08700025FF2139727B60FD60002A42D02B4E09E091F84A009C
:20400000F9683A72834054F8042F0B43FB60B2B392F84A3092F84910526C03F01F0343EA5C
:2040200041131F2BC6BF03F01F0331464FF0A04103F5E07342F08C0241F82350236893F8E4
:204040004A1093F8490001F01FF9226892F84A3092F8490003F01F0343EA4010012102F022
:20406000C1FD2168387A91F8492082424FF00103C4D0FF28C2D054F8042F002AC8D10B486C
:20408000002105F055FBBDE8F840044801F052B92E300020600000202C300020F003002008
:2040A0002D300020F13E0000000300506800002030B5174B83B000221A6002F053FB00BB68
:2040C000002002F06BFB134B134A93E80300FF250090ADF80410062400231048ADF8005028
:2040E00069468DF802408DF8043002F0F1FF58B901210A4803F040F8084803F031F803B0E0
:2041000030BDFDF72BF9DBE7FDF728F9F0E700BF040400205C2101004D4100006421010073
:20412000014B1868704700BF0404002008B5064A13680133136000F043FD00B908BDBDE893
:20414000084000F023BD00BF04040020042800D07047FFF7EBBF00BF014B1868C009704702
:20416000040400202DE9F04105F0F0F9FFF7A0FF07F0CAFE05F0FEFA00216448644FDFF85A
:20418000E481644D644C654E05F0D2FA00F0A2FB0CF07EFC09F0EEFB05F0E0F905F09CFBA6
:2041A0005F4B1B6898477B689847D8F804309847A979EB79226803EB0123022A338021DC50
:2041C000584B29686A6819605A605748002105F0AFFA4FF0FF300AF00FFF2368022B0546CF
:2041E0007DDC05F0DDF95148FFF7F8FD0CF07AFC05F0C6FA04460CF07DFC002CF8D105F047
:20420000D5F9F5E74A4A4B494B4805F0EBF94B4805F054FB2368022BD2DD454A4549464877
:2042200005F0E0F9464B4748196805F0DBF92368022BC5DD3E4A3F493F4805F0D3F9D8F8C4
:204240000010414805F0CEF92368022BB8DD384A3849394805F0C6F939683C4805F0C2F9AF
:204260002368022BACDD324A3249334805F0BAF937484AF6AA2105F0B5F92368022B9FDD82
:204280002B4A2C492C4805F0ADF932480A2105F0A9F92368022B93DD254A2649264805F080
:2042A000A1F931882C4805F09DF92368022B87DD1F4A2049204805F095F9284805F092F9E3
:2042C0002368022B7FF77CAF284601F075FA2368022B7FF775AF0A2005F0EEFA70E7144AA9
:2042E0001449154805F07EF91D4805F07BF92368022B7FF776AF284601F04EFA2368022B18
:204300007FF76FAF0A2005F0D7FA6AE7AC0000206C22010008260020CC000020A42500204A
:20432000382301000C2A0020CC010020E02601006C210100742101007C2101008C21010067
:20434000C0240100B4210100C4210100D0210100DC210100F821010018220100282201002C
:20436000402201004025010030B590F82D50012D83B0044611D91F2505F018FB094BB0FBAA
:20438000F5F11B68009301FB1501074A234604F10C0000F0A9FA03B030BDE91C01258D4029
:2043A000013DE9E7182700202D4400002DE9F0470D468B6892F82C708146506BD3E90068C0
:2043C000144601F0B7F9686805F0C2FAA968134801F0B2FA1248294601F0AEFA636B1B68A5
:2043E00073B10023A3852046FFF7BEFF36B13A46494640463346BDE8F0471847BDE8F087E9
:2044000004F10C0000F0B8FA2146064801F092F92146054801F090FAE8E700BF7800002073
:2044200090000020700400208400002000B32DE9F047436B1D6882B00446B5B1686805F0BA
:204440009DFA63490C2005F069F80121072005F059F8604B5B68984700280ADAAB6823B1C8
:20446000052022462946FFF7A1FF02B0BDE8F087704704F0A1FFDFF8608190F80290D8F8EF
:20448000047004F099FF064604F0A0FF01463046B84705F053F8D8F818600746B04770BB8A
:2044A000002F50D1D8F81CA0D04740BBD8F8087004F08CFFB84700285CD002281FD0AB68C8
:2044C000002BD2D00420CCE707F052FD6FF028031E1A03E007F04CFDC64202D5D0470028EF
:2044E000F8D0D04700285DD0D8F81030032101A89847032803D19DF806304B452AD0AA6866
:20450000002AB2D094F82D300133DBB2052B84F82D3094F82C3006D90133DBB2002184F817
:204520002C3084F82D10127A9A4205D8224629460120FFF73BFF98E72046FFF715FF68683A
:2045400005F000FA91E7D8F8086004F03FFFB0470028B2D1AB68002B87D094F82C3000204B
:204560000133294684F82C3084F82D002246FFF71DFF7AE707F0FCFC6FF018073F1A03E093
:2045800007F0F6FCC74202D5D0470028F8D0B047002899D1D047002896D1D8F81430984729
:2045A000002891D0A96800293FF45FAF94F82C300133DBB2002284F82C3084F82D200A7A07
:2045C0009A42B9D8224629460220FFF7EFFE4CE708260020A4220100382301002DE9F041A7
:2045E00005460D200F4604F0A1FF064601F014F901210B2004F086FF374B1C6814B914E083
:20460000246894B13146201D01F040F80028F7D0606B01F0A9F807281EDDDDB138462B46F9
:204620000122BDE8F041062118472C4801F068F904460028F1D03146201D01F021F8002321
:2046400004F13002C4E90C322348A385214601F025F8DDE7BDE8F081214801F051F9064676
:2046600060B3204801F04CF9B06018B305F048F97060D8B10520D6F8088004F049FFC8E9B7
:20468000005710F0FF0006BF082388F8083088F80800606B314601F001F8636B1B689E4237
:2046A000D8D12046BDE8F041FFF75EBEB1680D4801F042F90A48314601F03EF9606B01F0BC
:2046C00053F80028A9D12146034801F033F82146024801F031F9A0E7700400208400002094
:2046E000900000207800002008B5054801F0F6F8044801F0F3F8BDE80840034801F0EEB892
:20470000900000207800002084000020014B1B6A184700BF38230100014B5B6A184700BF33
:204720003823010010B50D4B82B01B6898470C4B04469B6A01A91920984701280BD0002CD4
:204740000198B8BF15248028D4BFC4EB0000C4F1800002B010BD002002B010BDA42201000C
:2047600038230100FFF73ABF00B583B004F028FE032804D0244B9B689847002802DA03B0E5
:204780005DF804FB0D2004F0D1FE204900F07EFF18B904F0D3FE0028F1D00C2004F0C6FE9C
:2047A0001A4900F073FF0028E9D101F03FF890B1072004F0ADFE0028E1D00223ADF804304C
:2047C00004F0FAFD124B8278DB688DF80620032101A89847D3E701F04FF8072004F098FE5A
:2047E00018B90C4B9B689847C9E70223ADF8043004F0E2FD064B8278DB688DF806200321D1
:2048000001A89847EDE700BFA422010008260020382301004025010030B50D4C83B0A56A26
:2048200069461920A84748B901A90420A84738B100F0EAFFFFF758FF236A984703B030BDC8
:204840000199E36A21F00201019104209847EFE738230100F8B5038805462BB1452B14D1E2
:20486000882916D00120F8BD174B1C6834B1A168201D00F091F92468002CF8D1134B01223E
:204880001A7045232B800120F8BD002303800320F8BD0D4B1C68002CF3D0231D9A4205D06B
:2048A0002468231D002CECD09A42F9D10648084E214600F03FFFD4E90523376832600BB193
:2048C000E06998473760DCE750050020BA25002018270020024B03480021196004F028BF76
:2048E000500500209C00002070B50E4C049E25784661C0E90623044635B9A1600A4821465E
:20490000BDE8704000F0CABE084D094B2E682B60043000F041F92E6021460348BDE870400D
:2049200000F0BCBEBA25002050050020182700209C00002070B50C4B1B7804462BB92146DA
:204940000A48BDE8704000F0A9BE094D094B2E682B60043000F02AF92E6021460348BDE862
:20496000704000F09BBE00BFBA25002050050020182700209C00002010B50A4B1B780446F9
:204980003BB9C0E9033321460748BDE8104000F0D1BE043000F01CF921460348BDE810403A
:2049A00000F0C8BEBA2500205005002008B5084B1B7823B10069B0FA80F0400908BD0146BE
:2049C000044800F0DBFE80F00100C0B208BD00BFBA2500205005002010B50446C0B20CF06A
:2049E00023F80A2C01D0204610BD0BF0EDFF204610BD00BFF8B588B10F46461E002500E0E5
:204A0000013516F8014F20464CB1AF4207D00CF00BF80A2CF4D10BF0D7FFF1E705460BF0EE
:204A2000D3FF2846F8BD00BF10B5FFF779FB0B4B1A68D2E9003192680B44191A52B1D2E995
:204A4000003423441B1A9268994228BF1946002AF5D14318024A136010BD00BF5805002058
:204A6000540500202DE9F843038805465BB3592B2CD187292FD0822920D12C4FDFF8B48036
:204A80003C684FF00009CCB1002603E0A3682646A3B11C46204609F0B5FF0028F6D0E0682E
:204AA0002246882104F0CCFE03464046002B2AD004F0F4FEA3682646002BEAD159232B80C9
:204AC0000120BDE8F883194A1360F7E7002303800320BDE8F883154F3968002019B9EDE72D
:204AE00089680120D9B1CB689342F9D000B139608B68002BE2D0D868904207BF9B688B6069
:204B000019469B68F5E7E360A3686EB1B3603B68C4F808902BB1FFF787FF3C68B3E73960B1
:204B2000CCE7034A1360C9E73B60F1E75805002054050020AC00002010B50446104804F0C2
:204B4000ADFE1049E3680A684BB142B194420FD0134601E09C420BD09B68002BFAD10A4BAF
:204B6000A2601B68E3600C60BDE81040FFF75CBF054B1B68E360BDE81040FFF755BF00BF27
:204B8000AC0000205805002018270020014804F085BE00BFAC00002010B5044609F01CFF3F
:204BA0002046BDE81040FFF7C7BF00BF10B5044609F01AFF2046BDE81040FFF7BDBF00BFB2
:204BC000024B1868003818BF012070475805002010B5124B19688142044614D00B462BB1E3
:204BE0009A68A24206D01346002BF9D10023C4E9023310BDA2689A6049B1FFF715FF0023AE
:204C0000C4E9023310BD82681A60002AF5D1044B00221A600023C4E9023310BD5805002057
:204C200054050020014B1888704700BFAC02002000283ED0037A022B30B410D00378022B7F
:204C400015D00379B3B10024C37913F0030318BF012301B10C6002B1136030BC7047C57906
:204C6000447A037965B90CB9012BF2D0DBB100231C46EEE7447A14F0030418BF0124E3E7B4
:204C8000C4B1032D37D1032C2ED0022C24D143BB022D2DD00123032D24D1A4F10204B4FA5B
:204CA00084F46409D5E7023C012C8CBF00240124CFE770474BB9022D08BF0123EAD1A4F179
:204CC0000304B4FA84F46409C3E7032D01D0022D02D123461C46BCE7002BC8D1022DDAD181
:204CE000EDE701230024B4E7002BC0D10123D4E701231C46ADE7022DC7D1002BF1D1022C66
:204D00004FF00103DBD11C46A3E700BF30B500230B608B80437DDB075CBF01230B70037E9E
:204D2000012B83B00D46044623D901AA694604F11000FFF77DFF009B0BB10223EB70019B37
:204D40000BB102236B70E37D03F00303022B03D0032B14BF00230823AB70637E03F00303FA
:204D6000022B03D0032B14BF002308232B7103B030BDC37D13F0030309D0437E13F00303BC
:204D800005D0C38B828B9B1AB3FA83F35B092375CBE700BF02280CBF012307230B441A787A
:204DA000FF2A184603F1FF3303D18142F7D1012070470020704700BF30B583B06946FFF7BC
:204DC000A5FF9DF800309DF801509DF802409DF803109DF804209DF8050002332B442344A7
:204DE0000B441344184403B030BD00BF70B4437882780578C478DB00120102F0100203F0DB
:204E000008031343027905F0070564012B4304F020049201234302F0400213430B70437910
:204E20008579467AC479027A03F001036D0043EA861305F00205A0002B4300F00C001201B8
:204E4000034302F03002134370BC4B70704700BF70B582B00D4604466946FFF757FF04F151
:204E600010002946FFF7C2FF9DF80030012B04BFA37EAB709DF801300CBF03200220022B09
:204E800006D1A38B2B54A38B421C1B0AAB5402309DF8026056B1731E234429181A7801F8EA
:204EA000012BA34203F1FF33F8D130449DF80330022B06D1E38B2B54E38B421C1B0AAB54D5
:204EC00002309DF8046056B1F31D23442918073413F8012901F8012BA342F9D1304402B07E
:204EE00070BD00BF30B40278437802F00700C2F3C005C2F300140870C2F34010C2F38012AD
:204F00004D708C7003F00105C3F34004C8700A71C3F38100C3F301129B094D718C71C8719A
:204F200030BC0A724B727047012943DD2DE9F04186B00F4603A914460546FFF7D3FF03ABB2
:204F400003CB9DF811201B882383206161616AB3AE1C03A802AA01A9FFF76AFE9DF81380C3
:204F6000B8F1000F43D0029B002B31D1B8F1020FA38367D0B8F1030F4DD09DF81580B8F1DA
:204F8000000F2CD0019BBBB9A38BE383B8F1020F4DD0B8F1030F31D0701B3B1A8742C4E979
:204FA0000E6300DA002006B0BDE8F081AB78A376EE1CCEE700207047717816F8023B029A18
:204FC00003EB01239BB2E383002ADFD1A383DDE7727816F8023B03EB02239BB2C6E71E499F
:204FE00004F1080000F04CFBA4F81E80D4E71A49204600F045FBA4F81C80BEE706F10800B3
:20500000034604F1080213F8011D02F8011BB342F9D10646C0E706F108000346621E13F884
:20502000011D02F8011FB342F9D10646A5E70A4904F1080000F024FB7378237216F8023B77
:205040006372A9E70449204600F01AFB7378237016F8023B637090E7B022010030B591B027
:2050600004F09AF9044604F0ABF96A4601462046FFF75AFF00283ED0044604F071F9D0B3BA
:205080009DF810100B2004F03DFA9DF81310072004F038FA9DF817308BB1BDF81C50FFF7D1
:2050A000C1FD854205D0BDF81C204FF6FF739A4221D19DF817006946FFF76CFEB0B102A959
:2050C0000C2004F02BFA9DF815303BB14FF6FF71062004F017FA204611B030BD9DF81A1012
:2050E000062004F00FFA204611B030BD69460D2004F014FAE3E74FF0FF34ECE7F8B5054694
:205100000B2014460E46A84700232074A37496B3E37463750820A847002701232376A07571
:2051200067740620A847A076FFF77CFDE0830920A84701280CBF3B4603236376FFF772FDA6
:20514000A0830A20A84701281AD066B90323E375637E022B0CD0E37DA3F10203B3FA83F35D
:205160005B092375F8BD0223E375637E022BF2D101232375F8BD0720A8476675E074C9E7CA
:20518000E775E5E730B591B00546FFF74BFD4FF6FF74A0423AD04022002168460CF0A8FDC2
:2051A00004F0CCF96A4601461A48FFF7A7FF04F0C5F918B3ADF800400C2004F0B7F90146C8
:2051C00002A800F05DFA04F0E7F80E9004F0F8F8034668460F93FFF7EFFD044615B9204690
:2051E00011B030BD04F08CF880B104F0E5F801466846FFF72DFE204611B030BD0D2004F03C
:2052000095F90146684600F03BFAD5E74FF0FF34E5E700BF119500000120FFF7B3BF00BF3F
:205220000020FFF7AFBF00BF0649074A074B9B1A03DD043BC858D050FBDC09F07BF9FCF7EE
:2052400053F80000EC28010008000020B8020020FEE7FEE7FEE7FEE7FEE7FEE7FEE7FEE7C4
:20526000FEE7FEE700F01F030121C0F34710994000F066B808B501F019FC00B108BDBDE861
:20528000084001F0C9BB00BF30B583B01446022301F01F0100228DF8063014F00C0341EACF
:2052A0004015ADF8042006D0042B25D0082B27D00C2B02D103238DF8043014F0030304D0E5
:2052C000022B15D0012B02D103238DF805300E4A01A9284601F0F4FB2306284603D401F02E
:2052E000EDFC03B030BD012101F07CFC03B030BD01238DF80530EAE701238DF80430DCE7AB
:2053000002238DF80430D8E76552000001F01F0141EA40101F28CABF054B4FF0A04300F07B
:205320001F00D3F8101521FA00F000F001007047000300500146014800F0B0B95C050020EE
:2053400070B50C4B1C689CB105460E4601E0246874B1237AAB42FAD1E36816EA0301F6D065
:2053600063682846002BF2D098472468002CF0D170BD00BF5C050020024B00221A60FFF763
:2053800079BF00BF5C050020EFF3108072B6704780F31088704700BF70B41A4A1A4D0023B1
:2053A000012440FA03F1C90712D59178B9B11178567801F01F0141EA46111F29C6BF01F0C8
:2053C0001F012E464FF0A04604FA01F1C6F808150133042B02F10302E3D170BC70471178CE
:2053E000567801F01F0141EA46111F29C6BF01F01F012E464FF0A04604FA01F1C6F80C1506
:20540000E6E700BF3C210100000300500E4A30B40E4D02F10C0403201378517803F01F0329
:2054200043EA41131F2BC6BF03F01F0329464FF0A04103F5E0730332944241F82300EBD10A
:2054400030BC0F20FFF7A8BF3C2101000003005010B50948FFF76EFA084800F073FB50B100
:20546000064C01460B7A5B080B72204600F036FB01460028F6D110BDE8250020BC0000209B
:205480000146014800F08CBBBC00002080B110B50446FEF745FE2368C01AB0F5963F05D23B
:2054A000207A032894BF0020012010BD002010BD0020704770B50546144689B1022907D0FC
:2054C00006290CD10146BDE870402A4800F068BB0146284800F064FB0646002832D170BDF5
:2054E0000146244800F05CFB0646002835D0FEF717FE337A30602344102BA8BF1023337211
:20550000FEF70EFE3368C01AE401B0F5963FA4B208D2337A042BB38834BF19220A222BB931
:20552000B48070BDB3881922002BF9D002FB04F41149C2F1640203FB0242A1FB02325209CB
:20554000B28070BDFEF7ECFD337A30602344102BA8BF102333720C34D2E7334605482946C2
:20556000082200F07DFB06460028B8D047F6FF73C380BCE7BC0000201F85EB5138B5054614
:20558000042003F0C5FF29460446214824B200F007FB38B3B0F9063047F6FF7293422CD0FD
:2055A00004EB840462005A251A4C818813FB052384FB0324DB17C3EB641424B2C48081B9DC
:2055C00004F15A0212B222EAE2721E2A124BA8BF1E22D201A3FB0232120902F5807292B21D
:2055E000828038BD034629460948082200F038FB0028F6D047F6FF73C3808388C480002B04
:20560000EFD147F6FF739C42DAD14FF48072E7E7BC0000201F85EB518988888838B5094874
:2056200000F090FA60B1074D04462146284600F085FB2146284600F051FA04460028F4D1B5
:2056400038BD00BFBC00002000B5002183B0084800F022FA074B084A1B6800930748002329
:205660004FF4E131FFF740F903B05DF804FB00BFBC0000201827002051540000E8250020D3
:205680000B684A6842600360704700BF08B508220CF0F8FAB0FA80F0400908BD0368DBB176
:2056A00010B4002400E0134699420FD01A681C46002AF8D100230B600368CBB11A461B68E0
:2056C000002BFBD111605DF8044B70470A686CB1226000221A60EDE700230B6003684BB191
:2056E0001A461B68002BFBD1116070470260F0E70160E8E70160704730B405684DB12B4667
:20570000002400E01346994207D01A681C46002AF8D10D6030BC016070470A683CB1226051
:2057200000221A6005680D6030BC016070470260F6E700BF03689BB110B4002400E0134619
:2057400099421A6805D01C46002AF8D15DF8044B704734B1226000221A605DF8044B704709
:2057600070470260F7E700BF03682BB100201B680130002BFBD1704718467047006848B134
:20578000884202D105E0814203D000680028FAD170470120704700BF00B58BB002462821C7
:2057A00068460AF0C5FF6946024803F01BFF0BB05DF804FBB8220100F0B170B50024104E45
:2057C000054654B1E3070DD5295D304603F00AFF072C10D00134002CF4D12978304603F072
:2057E00001FFF7E72E2004F067F8295D304603F0F9FE072CEED170BD024803F0F3BE00BF78
:20580000CC220100BC22010008B504F0CFF8014B187008BDBB250020034B197806204A1C3E
:205820001A7003F06FBE00BFBB250020F8B5FEF777FC104E0746344600250C2003F076FE0D
:205840002146FFF723FF103420B90135102DF4D10020F8BD062006EB051503F059FE2B7B7E
:205860008342F5D1A868381AB0F5206F8CBF00200120F8BD20060020F8B5174E00243746CD
:2058800035460C2003F052FE2946FFF7FFFE1035F8B90134102CF4D10F2407EB04142546E8
:2058A00054F8100D6168A268E368A6420FC5F6D1062003F02DFE3873FEF732FC0346BB6068
:2058C0000C2003F033FEBDE8F84001460248FFF7D7BE002CE1D1EBE72006002010B504467A
:2058E0004288406800210CF003FA23886288A06802FB03F2BDE8104000210CF0F9B900BF0A
:2059000030B44588ADB14368002202E00132AA420CD0194601330C78002CF7D101230B7024
:205920000588806802FB050030BC7047002030BC70472846F8E700BF30B44488826854B1DF
:205940008A420CD00588002301E0914208D00133A3422A44F9D14FF0FF3030BC70470023DE
:205960004268D15C0029F6D00020D05430BC704783688B4208D84288008800FB02308142A0
:205980002CBF00200120704700207047418849B143680020194413F8012B02B901308B4272
:2059A000F9D170470846704738B50D4B0D4D1C68002818BF05463CB1211D2846FFF766FE01
:2059C00028B92468002CF7D14FF0FF3038BD064A064B9068241AA01003FB00F038BD00BFDA
:2059E00050070020B0220100D0000020ABAAAAAA2DE9F84F224CDFF89CA0DFF88C90214F83
:205A00000546884604F1200B54F8043FBBB19E68AEB1A5B1D9F80820AA1A91100C3207FBF9
:205A200001F10CD05A68D86802FB010038B11AF801201B6842FA03F3DB0700D5B0475C4578
:205A4000E2D1D5B1104B0F4A9B68EB1A9B1002FB03F30E490E480022CA5429460AF8032032
:205A6000FFF768FEB8F1000F01D1BDE8F88F29460548BDE8F84FFFF75FBF4FF0FF33E8E718
:205A80001C070020ABAAAAAAD000002040070020500700202808002038B10368072B04D89A
:205AA0000C4A52F82330984210D00B4A1368072B0AD830B4074C03605D1C8160156044F8B0
:205AC0002300012030BC70470020704781600120704700BF2007002024080020F0B5164BF7
:205AE000164D9C68164E20B301B3C768D0F804C0C91B91FBFCF101EB4102013119D014EBF3
:205B0000820314D054F82230A3EB040E4FEAAE0205FB02F20CFB02714BB11EF10C0F08D089
:205B200021B1B35C02681341DB07DCD50B461846F0BD00231846F0BDD0000020ABAAAAAA10
:205B400028080020124B1968F9B1124B9B68C91AD0B111F10C0F17D010B40F4B4468C268B1
:205B6000891003FB01F304FB032149B10B4C0268E35C1341DB0703D508465DF8044B7047C6
:205B80005DF8044BFFF7AABF0021FFF7A7BF00BF50070020D0000020ABAAAAAA2808002066
:205BA00010B504460846FFF7FFFE84B1431C02460DD06368E06803FB020038B1054B216807
:205BC0009B5C0B4113F0010F08BF002010BD002010BD00BF280800202DE9F84316460D46BF
:205BE000FFF7DEFF28B10024012006B13460BDE8F88304462846FFF7D7FE0130F3D1144875
:205C0000FFF7C4FE0028EED1124B1D68F5B1DFF84C90DFF83C80104F06E02046291D05F031
:205C2000B1FB04462D686DB1D8F80830EB1A9B1007FB03F319F80330002BF3D1002CECD1EF
:205C40002C1DEFE7201E18BF0120CEE72046CCE7D000002050070020ABAAAAAA40070020AA
:205C60002DE9F04182B060B32F4B0C46002908BF1C46214601AA0546FFF7AEFF08B3204659
:205C8000FFF792FE461C21D06A68EC6800FB0244002120460CF02CF8EB686A68E31A93FB6D
:205CA000F2F35A1C06D021492D68C85C0122AA400243CA54204602B0BDE8F081B8F1000F3A
:205CC0001DD10024204602B0BDE8F081184FDDF804803846FFF714FE06460028EED01548AF
:205CE0003146FFF7DBFCBB682146301DF41AFFF7C7FC14F10C0F12D16A680024C8E7404694
:205D0000FFF752FE411CDCD0BB6800EB400013EB8006D6D000213046FFF76AFEDFE7064BB0
:205D2000A01003FB00F0AFE7B022010028080020D000002050070020ABAAAAAA18B319B365
:205D4000C3684268CB1A93FBF2F35A1C1CD070B40F4E0568F45C012202FA05F524EA050446
:205D6000F454C3684468CB1A93FBF4F3591C0DD0084C0068E15C02FA00F021EA0001E15432
:205D8000104670BC70477047002070471046F8E7280800204007002098B199B1C2684368E8
:205DA000891A91FBF3F14B1C0CD010B4064A0368545C012000FA03F3234353545DF8044B9C
:205DC000704770470020704740070020A0B1A1B1C2684368891A91FBF3F14B1C0DD010B484
:205DE000074C0268635C012000FA02F223EA020363545DF8044B704770470020704700BFA7
:205E00004007002088B179B1C3684068C91A91FBF0F14B1C08D0054B986801EB410110EBDD
:205E2000810002D00430704700207047D000002070B50B4B1C685CB105460E46012D09D0AB
:205E40001DB963680BB1984718B92468002CF5D1002070BDA3683046002BF6D09847F3E73F
:205E600038080020064B074A01211960D2F8503513F0FF03FAD1C2F8FC3F0120704700BFDA
:205E80001010004000100040A1B1192810D8DFE800F00D770F0F6E65605B453F0F3A0F0F05
:205EA0000F36322E2A0F26221E1A17130020704701207047022070477D230B6000207047F0
:205EC00000200860704710230B60002070470A230B600020704720230B60002070470323F4
:205EE0000B600020704708230B6000207047D8230B60002070471A230B60002070470B2309
:205F00000B6000207047244B1B780B6000207047224B93F900300B6000207047204B214ABA
:205F2000012082B018601368002BFCD00020106012681D4B0192019AD3F8483503F07F03C7
:205F40005B420B6002B07047184B5B790B6000207047164B5B780B6000207047134BDB7830
:205F600000200860002BA1D001230B6070470F4B1B7800200860002B98D004230B60704766
:205F8000094B0B4AD3F80835A2FB03239B080A33DBB20B6000207047BC250020BD250020DB
:205FA000141000401C11004000100040EC000020CDCCCCCC0120704770B582B0FFF7E4F981
:205FC000BFF35F8F1C4B1B78ABB11C4B1C4902224FF0FF34C1F80843C3F88021C3F88020AE
:205FE000BFF34F8FBFF36F8FBFF35F8F02B0BDE87040FFF7CDB9134903F0FF020A60096813
:20600000114B019101991A601A680D490B4B00924FF0FF3502224FF44054009EC1F808539E
:20602000C3F88021C1F804431A60BFF35F8F02B0BDE87040FFF7ACB9EC00002000E100E0BB
:20604000001000403011004034110040144BD3F8FC0F28B1D3F85035DBB2032B01D00020E0
:206060007047104B1B7803F0FF0073B10E4B1B78053B7A2BF3D80D4B1B68002BEFD10C4BAC
:206080001868B0FA80F040097047074A1378053B7A2BE5D892F8800080F00100704700BFF7
:2060A00000100040EC0000203C08002030110040341100400D2801D001207047042A05D138
:2060C00021B1034B1B680B600020704702207047C008002070B51B4CD4F85055EDB2032D4E
:2060E00082B028D0184B1948194AC4F804051949C3F8102501264FF00062C3F81415C3F8D1
:206100000465C3F80425FFF757FFD4F8003243F01003C4F80032D4F80032022D43F400232D
:20612000C4F8003209D00C4B0C4A002119601B680193019B166002B070BD094B1E6002B0C5
:2061400070BD00BF0010004000F001403C080020381100404C8000405811004004100040DC
:206160000810004070B5304D304C314A00232B6084B02D680095009D236024680194019C44
:206180001360146802942B4D029C42F8043C2C7852F8043C0393631F7A2B039A02D8023C4A
:2061A000A1420ADA8122002122480BF0A1FDFFF791FF0024204604B070BD2246691C0BF078
:2061C0006FFD2B191C4E5B781C4A3F2B9ABF9B00DBB2FF233370D2F84835194A03F07F039D
:2061E0005B425BB299B20420137003F08BF93178032003F087F9134B2A7813491A74D1F89A
:206200004C055860D1F8481599605200DA605D68084881220021023D1D600BF069FDFFF7DE
:2062200059FF204604B070BD381100400C110040341100403C080020BC250020001000409F
:20624000BD250020C00800200080004010B5038804461BB340F2D332934224D1822901D0AF
:20626000012010BD124A1378053B7A2B16D8114B1B6813B992F8803083B10AF03BFC03F039
:20628000D3F803F089F88021FFF76CFF002805DD80B203F07BF8084BDB68984740F2D3336E
:2062A0002380012010BD00230380032010BD00BF3C080020301100406C2201007D2910B519
:2062C0000C4609D801460A48A31C00F8013B22460BF0E6FC002010BD064A0749074803F0EB
:2062E00081F921467D22064803F07CF9012010BDD4080020D4220100E42201007C210100E2
:20630000E822010070B4164B1649174C0F22C3F810258A780A3A02EB8202C3F808250879EA
:20632000CD798A794979120642EA0522024342EA0142C3F86C2640F2022600250B48C3F859
:2063400034657F2140F20122C3F83845C3F83C55C3F81405C3F81815C3F8502670BC70475B
:2063600000100040EC000020211001000800000608B5084BD3F8FC2F1AB1FFF7ABFE0120F0
:2063800008BD0122C3F8FC2FFFF7BCFFFFF7A2FE012008BD0010004030B585B0FFF7E8FFBB
:2063A000104A11491148124C0023136015680395039D0B600D680295029D036003680193AF
:2063C00001230198236001E00B6813B91368002BFAD0044A044B10681B68B0FA80F04009F2
:2063E00005B030BD48110040441100404C1100402C10004010B5072867D8DFE800F01A2A86
:20640000666648525A04364A3648C9B25171D0F8FC3F5BB11179D479937952791B0643EA72
:2064200004230B4343EA0243C0F86C360024204610BD01294FD000294AD12B4A294B01212C
:206440001160D3F8504514F0FF04FAD1C3F8FC4FEDE7A1F10B030F2B3AD8214A214BC8B282
:206460009070D3F8FC2F002AE0D01F4A01201060D3F8504514F0FF04FAD10A3901EB81016F
:20648000C3F8FC4FC3F80815FFF772FFCFE731F007041DD1124BC1F380011970FFF78CFD4D
:2064A000C5E731F0010413D10D4BC9B2D970204610BD0B4A0B4BC9B25170D3F8FC2F002AD0
:2064C000B4D0C3F80C150024B1E70124204610BD0224204610BDFFF74BFF0024A7E700BF3E
:2064E000EC000020001000401010004010B57D2884B04BD82C4CFFF73BFFE378002B3FD1E1
:2065000063782A4A2A49DBB20120C2F80C350860D2F85035DBB2022BFAD12649264BC2F83A
:20652000043500230B600868019001980B66086E029002988B648B6C0393039BD2F80032D1
:2065400023F01003C2F80032D2F80032012143F48023C2F80032116005F00AFD6FF0020374
:206560001C1A05F005FDE042FBD4104AD2F85035DBB20B2BFAD0FFF7ADFD002004B010BD86
:20658000FFF70AFF0028BBD10220F7E70B4A0C4904460C4803F026F821460B4803F022F828
:2065A000012004B010BD00BFEC000020001000400C1000400C110040D4080020D422010072
:2065C000E42201007C2101000423010010B50C46FFF774FE2046BDE81040FFF787BF00BF19
:2065E00010B51A491A481B4A1B4C00230B6003704B6023708B6082B0CB600B741360136851
:2066000000934FF080430121009819601368002BFCD0002414601368019321460F48019B3F
:2066200003F086F8214681220D480BF061FB0D4B0122C3F8FC2FFFF765FE0B4A1378DBB20C
:206640001370FFF7B9FC204602B010BDC0080020BC25002000010040BD250020DC000020FF
:206660003C08002000100040EC000020074A1378053B7A2B07D8064B1B6813B992F8800010
:206680007047012070470020704700BF3C08002030110040154B1B7803B1704700B503F0EA
:2066A000FF02134B196883B029B9124B1A6882B903B05DF804FB1A601B6800930E480F4B84
:2066C000009A012283F8802003B05DF804EB03F0E5B819601B68019381220848019B0BF041
:2066E00007FB03B05DF804EBFFF7F4BCEC0000203011004034110040DC0000203C08002089
:2067000010B40346002253E8000F00EA020143E8001494F0000FF6D15DF8044B704700BF60
:2067200010B568B90E4CA368012262703BB1D3E900230020A2609847A368002BF7D110BD82
:206740000128FCD1064C2369A070002BF7D0D3E900230120226198472369002BF7D110BDB5
:206760005409002010B50B4C237882B013B1852002B010BD08486360A3602361E36000F0FE
:20678000B5F8019000F0BEF801980123237002B010BD00BF540900202167000038B5154D33
:2067A000AB78044673B110B14368012098470020FDF702FBEB680133EB600020BDE83840BC
:2067C000FDF702BB03F0FF00FDF7F6FA64B12A6942B1944208D0134601E09C4204D01B687A
:2067E000002BFAD122602C61EB68002BE2D100F09FF8DFE75409002038B5154D6B7804461D
:2068000073B110B14368002098470020FDF7D4FA6B6801336B600020BDE83840FDF7D4BA76
:2068200003F0FF00FDF7C8FA64B1AA6842B1944208D0134601E09C4204D01B68002BFAD183
:206840002260AC606B68002BE2D100F089F8DFE75409002038B50B4C0020FDF7ADFA63687B
:20686000013B6360656825B1BDE838400020FDF7ABBA00F087F865700020BDE83840FDF76B
:20688000A3BA00BF5409002010B5074C23784BB9064B002808BF184600F044FB08B90123F6
:2068A000237010BD852010BDBE2500207023010000B583B0019000F069FB00F06FFB0198AF
:2068C00000F056FB00F05AFB002003B05DF804FB10B4034653E8000F00EA010243E8002478
:2068E00094F0000FF6D15DF8044B7047044A137923B9012110609180184670478520704719
:2069000068090020084B1A68D20704D4C02283F8002301221A60054A4FF080410123C1F817
:2069200018351370704700BF00E100E02F30002010B4094B094A0021196083B01B68019382
:20694000019C4FF0804102200123C1F80403136003B05DF8044B7047040100400800004086
:20696000074B00221A6082B01B68019301994FF080430122C3F804231A6002B0704700BF9D
:2069800000010040074B01221A604FF08042D2F80C3403F00113B3F1011FF8D0024B0022BA
:2069A0005A717047040000406809002010B5174B1A6882B062B10021154A19601B6850794D
:2069C00000934FF080410123009CC1F8083398B1104B1A68BAB100221A601B6801934FF0ED
:2069E000804202210A4B0198C2F808131B68012002B0BDE810401847116853718847054BE9
:206A00001A68002AE7D102B010BD00BF00010040680900200401004030B41F4C94F86A3048
:206A200082B0002B33D104F12F03204604F15F01FF2203F8012F8B42FBD14FF0FF3222603C
:206A40000123072B88BFE11803F1010340F8042F88BF81F858200C2BF3D11049104B002036
:206A6000C0228880606683F8062340221A600D4B0D4A18601B680193019D01214FF0004366
:206A800084F86A10C2F8043302B030BC7047082002B030BC704700BF70090020D4090020E8
:206AA00000E100E07C61004000600040034B93F86A00003818BF0120704700BF70090020D6
:206AC000F0B4454F3B1893F93030002B5DDA91F802C0CCF3400CBCF1000F0CBF08230023B2
:206AE00007EB8304A4F104040CBF0C26082602E001339E424CD954F8045F0135F8D13C1838
:206B000047F8232084F83030BCF1000F4FD08A7854071AD4D5074ED41F284C7887BF2F4D26
:206B200000F01F0202464FF0A04502F5E072A40045F822402A4DC40800F0070C2E5D012258
:206B400002FA0CF232432A558A7812F0020222D09B0003F1804303F5C0430978D3F810455F
:206B600024F44F3424F44074C3F8104502020904D3F8100501F4403102F47C520A430243F1
:206B8000C3F810250020F0BC70470820F0BC70470420F0BC7047083B1F44097897F860302A
:206BA00043EA811387F860301046F0BC7047FA1882F85800ABE71F2887BF084A00F01F04E4
:206BC00004464FF0A04202EB8402D2F8004724F00204C2F80047ADE770090020000300502B
:206BE000D409002070B4324C251883B095F93030072B22DD234493F858309B09032B46D005
:206C0000012B0CBF4FF400324FF440321F288ABF284B4FF0A04300F01F0003EB8000D0F8E9
:206C2000003723F44033C0F80037D0F800371A43C0F8002703B070BC7047DAB2072AF9D845
:206C4000980000F1804000F5C04003F140029200D0F8106592B202F1804202F5C04246F0C9
:206C60000106C0F810650020106012680192019A0029DFD095F9302054F82220002AD9D091
:206C80000D49012202FA03F3C1F80433D2E71F288ABF084A4FF0A04200F01F03D2F81025CC
:206CA00098BF0346DA4002F0010202321204ADE7700900200003005000600040194B034410
:206CC00093F93030072B13DD1F288ABF164B4FF0A04300F01F0003EB8000D0F8003723F400
:206CE0004033C0F80037D0F80037C0F800377047DAB2072A14D810B49A0002F1804202F5DA
:206D0000C0420A4CD2F81005012120F0010001FA03F3C2F81005C4F808335DF8044B7047F7
:206D2000704700BF7009002000030050006000402DE9F04F002289B0CDE902221646154610
:206D4000704B714C7148012204E0043383424FEA420211D019680129F7D1D4F804131142F8
:206D6000F3D01D60196800910433834246EA020600994FEA4202EDD1654B1A68012A07D085
:206D800016F0FF0F17D1002E32DB09B0BDE8F08F00221A601B6801934FF0A042019BD2F8A5
:206DA00010255C4B0292D3F81035039316F0FF0F1ED046F00046584F01250024A30003F1B7
:206DC00080432E4203F5C0434FEA45050BD0D3F8100557F82420D3F81015C0F30520C1F338
:206DE000014102B190470134082CE7D1002ECCDA4FF0FF33494D0DF1100ACDE906330022A2
:206E0000CAF804200492A5F16408454C0027012614F9010B431C32D0C0F3C20E08AB03EB77
:206E20000E0C00F007031CF8081C06FA03F31942C2B200F03F0022D008EB0009910999F9F8
:206E4000309058F82990B9F1000F4CD003294CD01F288BBFDFF8BCE04FF0A04E02F01F0208
:206E600002460EEB82021CF818ECD2F800C71EEA030FCCF3014C1BD1BCF1030F3CD0A542E0
:206E8000C6D1002F81D04FF0A0430299D3F81035204A9942D2F8102503D1039991423FF454
:206EA00074AFDDE90401CDE90232CDE90601ACE7BCF1020FE3D1032904D0B9F1000FDED0D1
:206EC000C847DCE74FF4403CD2F8003723F44033C2F80037D2F8003701374CEA0303FFB27F
:206EE000C2F80037E9E70329C9D11AF80EB04BEA030B0AF80EB0ABE70329DED14FF4003C4C
:206F0000E2E700BF0061004000600040206100407C6100400003005070090020D4090020E1
:206F2000D0090020104A1378DBB910B403780F494FF08044C3F34003C4F88035037803F06D
:206F40000103C4F878350B68DB0704D4C02381F8003301230B600123137000205DF8044B0E
:206F600070478520704700BF3030002000E100E0014B02681A607047E40900204FF0804308
:206F80004FF46072C3F80423704700BF4FF080434FF46072C3F80823704700BF014B0022A3
:206FA0001A607047E409002010B54FF0804386B0D3F80443620705D5D3F8082103F584735E
:206FC000002A4ED1A30603D52A4B1A68002A3FD1600603D5284B1A68002A2FD1210602D55B
:206FE000264B1A680ABBE20502D5254B1A6892B9A3050ED5234B1A685AB100221A601A683A
:20700000214B0592059A1B68022006B0BDE81040184706B010BD00221A601B4A1B68049381
:2070200001201368049A9847E2E700201860164A1B6803931368039A9847D4E700221A600F
:20704000124A1B68029301201368029A9847C5E7002018600D4A1B6801931368019A9847FE
:20706000B6E700221A600A4A1B6800931368009A9847A7E714010040180100401C010040E0
:207080002001004024010040E4090020E0090020DC09002008B5FFF787FFBDE80840FFF7F3
:2070A00085BC00BF074B0849084A0020186082B01B680193019BD1F808051368C0B202B0E9
:2070C000184700BF00D1004000D00040E809002070B443791E4C1F4E03EB430546F82320F2
:2070E000655D8DBB90F904308A78002B24DB03F1604303F561435201D2B283F8002390F96C
:207100000430002B07DB144D03F01F0601225B09B24045F8232003680A88C3F8082543791B
:207120000879C97803EB4303E218012550709170E554002070BC7047084D03F00F0352018F
:207140001D44D2B22A76DAE7082070BC704700BFEC090020F009002000E100E0FCEC00E068
:207160000368044A01211960437903EB43030221D1547047EC09002010B403680022C3F8AB
:20718000002183B0D3F80031026801930123019CC2F8443311B10268C2F8043303B05DF88A
:2071A000044B70472DE9F041274F284EDFF8A08084B000244FF48035D7F804332B4211D0FB
:2071C00056F824200023E0B262B1C7F84853C7F8085346F8243056F824300393D8F8003017
:2071E000039A98470134032C4FEA4505E4D1164BD3F80423D10702D5D3F80021C2B9124BB1
:20720000D3F80423920710D5D3F804216AB10022C3F80421D3F804210D4B0192019A1B68F8
:20722000052004B0BDE8F041184704B0BDE8F0810022C3F80021064AD3F800310293042073
:207240001368029A9847DAE700B0004040B10040F0090020084B09491B68094AA1FB031310
:207260009B0C916800FB03F09368CB1A23F07F438342F9D3704700BFC801002083DE1B431C
:2072800010E000E030B44C689C4208D2002545600968016093420CD0002030BC704743601B
:2072A0000D6805600868E41A18449342C1E90004F2D1201E18BF012030BC704710B4D1E98D
:2072C00000439A4228BF1A46C0E90042D1E90030801A1344C1E90030003818BF01205DF823
:2072E000044B70474B689A4228BF1A4662B10B68C0E90032D1E90030801A1344C1E900309C
:20730000101E18BF012070471346F1E710B5094B09491A68094C82B0002301208DF804001E
:207320008DF80730ADF8053001A823700B70904702B010BD1C0B0020C2250020BF25002058
:20734000704700BF00B583B00D4B0E4900228DF80420D3F82025ADF80620D3F8C0040A4A97
:207360000968136800280CBF4FF480704FF00120034301A81360884703B05DF804FB00BFA4
:20738000007002401C0B0020F8090020F8B54B680B4F934228BF13461D460C4606461A46A3
:2073A000096838460AF07CFCC6E90075D4E90030401B2B44C4E90030003818BF0120F8BDCF
:2073C000240B002070B54B68934228BF13460D461C4606465BB933607460D5E90032121BD8
:2073E0002344C5E90032201E18BF012070BD044B0968184622460AF053FC3060ECE700BFF2
:20740000240B002010B5274BD3F80044C3F8004482B0BFF36F8FBFF34F8FBFF36F8FBFF304
:207420004F8FE1050ED5204B20491A68022000238DF80730ADF805308DF80400012301A81E
:207440000B709047A2050DD5174B18491A68032000238DF804008DF80730ADF8053001A8FE
:207460000B70904763051AD5104B1A78BAB10D4C0F48012100221A70C4F808150160BFF3A1
:207480006F8FBFF34F8F084BADF8052004211B688DF807208DF804100DEB0100984702B0CA
:2074A00010BD00BF007002401C0B0020BF2500205870024070B5394A0126136806FA01F4FA
:2074C00023431360030682B0054610D4344B1B681C420AD1334B8DF8060006221B688DF8F5
:2074E00007608DF8042001A8984702B070BD2E4B00F00F0133F8113003F1804303F51C3332
:207500001A68DAB100221A60BFF36F8FBFF34F8F264B80281B6822D0082B08BF244B25481E
:2075200008BF1A60244B03EB01120026927B0670032A4FEA011029D01B583BB3184B19683C
:207540002140D2D1174B8DF8065006221B688DF807108DF8042001A8984702B070BD082B60
:2075600008BF134B134908BF1A60144B93F89E200020032A087003D0D3F89030002BDDD1A5
:207580006FF001010648FFF7A3F9D7E7012303FA01F1C9430248FFF79BF9CFE7F809002022
:2075A000F40900201C0B002080230100300100101C7C0240C02500208C0A0020FC090020C8
:2075C000064B93F900201878002AB4BF0021102100F00F031944FFF76DBF00BFC2250020E8
:2075E0002DE9F04FDFF8F4A2DFF8F882DAF80040D8F80030234089B000F0C68013F001246C
:2076000000F0C58094FAA4F4002C00F0C580B4FA84F70F2F3D461BD8DFF8CCA24FEA071B31
:207620000AEB07165AF80B30B289716806A8984767F07F09012302974FFA89F903FA07F7A8
:2076400008B94AF80B006FEA070B05F008072CE0A7F11003974A4FF0010BDDB20BFA07FB34
:207660004FFA83F913F008032C4602EB05166FEA0B0B019340F0988003950022019205F52B
:2076800094738D4A52F82330B28971683768029306A8B847069A22B1079A029B934200F202
:2076A000DB80019F029400B93060844B1B68082B02D1834B82221A60D8F80020B368079901
:2076C00002EA0B020B44C8F800207E4AB360B9F1000F4FF001031370069A73DB002F00F01B
:2076E0008580754BC3F8A027C3F8A417734B1B68082B4FEA850540F08A80734B1B68002BF0
:2077000040F08580B9F1000FB4BF042328231D446E4A6F49029B6F4EDFF8D081EDB2B4BF31
:207720009146894605F1804509EB430905F51C35002701243760BFF36F8FBFF34F8F2C60AE
:20774000BFF36F8FBFF34F8F0220FFF783FD3368002BEFD01E20FFF77DFDD8F800309A067E
:2077600006D40220FFF776FDD8F800309B06F8D50120FFF76FFDB9F8003003F1804303F523
:207780001C331B68002BD4D009B0BDE8F08F93FAA3F4002C7FF43BAF1023464E0393994682
:2077A0004FF0FF3B254668E7434BD3F8C034D9037DD5B28971683468019F029506A8002363
:2077C000A04770E7002F61D105EB85039B0003F1804303F51C33AD00C3F80026C3F8041696
:2077E000364B1B68082B5CD0042311E005EB85039B0003F1804303F51C33AD00C3F800276E
:20780000C3F804172D4B1B68082B3FF476AF28232B44DBB203F1804303F51C3301221A602A
:20782000BFF36F8FBFF34F8F284B294A2A4913EA290938BF9146029B39F8132002F18042FC
:2078400002F51C3202E00B68002B9DD11368002BF9D009B0BDE8F08F02245946B4731F4856
:20786000FFF736F81E4B03991B688DF8174006228DF816108DF8142005A89847DAF8003066
:20788000D8F8004023407FF4B9AE7DE70A4BC3F8A026C3F8A416094B1B68082B4FEA85051F
:2078A000A2D1094B1B68002B3FF42CAF9CE70395EAE600BFFC090020007002403001001083
:2078C0001C7C0240C02500203401001080230100A02301000471024000710240F409002095
:2078E0001C0B0020F80900208C0A00207474024038B5214BD3F86C44C3F86C44BFF36F8F51
:20790000BFF34F8F1D4B1B68082B28D09CB1012594FAA4F3B3FA83F21146D3B10F2AA2F160
